{
  "contracts/ludo.sol": {
    "LudoGame": {
      "abi": [
        {
          "anonymous": false,
          "inputs": [
            {
              "indexed": false,
              "internalType": "address",
              "name": "player",
              "type": "address"
            },
            {
              "indexed": false,
              "internalType": "uint256",
              "name": "roll",
              "type": "uint256"
            }
          ],
          "name": "DiceRolled",
          "type": "event"
        },
        {
          "anonymous": false,
          "inputs": [
            {
              "indexed": false,
              "internalType": "address",
              "name": "player",
              "type": "address"
            },
            {
              "indexed": false,
              "internalType": "uint256",
              "name": "pieceIndex",
              "type": "uint256"
            },
            {
              "indexed": false,
              "internalType": "uint256",
              "name": "newPosition",
              "type": "uint256"
            }
          ],
          "name": "PieceMoved",
          "type": "event"
        },
        {
          "anonymous": false,
          "inputs": [
            {
              "indexed": false,
              "internalType": "address",
              "name": "player",
              "type": "address"
            },
            {
              "indexed": false,
              "internalType": "uint256",
              "name": "startingPosition",
              "type": "uint256"
            }
          ],
          "name": "PlayerJoined",
          "type": "event"
        },
        {
          "inputs": [],
          "name": "currentPlayerIndex",
          "outputs": [
            {
              "internalType": "uint256",
              "name": "",
              "type": "uint256"
            }
          ],
          "stateMutability": "view",
          "type": "function"
        },
        {
          "inputs": [],
          "name": "joinGame",
          "outputs": [],
          "stateMutability": "nonpayable",
          "type": "function"
        },
        {
          "inputs": [
            {
              "internalType": "uint256",
              "name": "pieceIndex",
              "type": "uint256"
            },
            {
              "internalType": "uint256",
              "name": "steps",
              "type": "uint256"
            }
          ],
          "name": "movePiece",
          "outputs": [],
          "stateMutability": "nonpayable",
          "type": "function"
        },
        {
          "inputs": [
            {
              "internalType": "uint256",
              "name": "pieceIndex",
              "type": "uint256"
            }
          ],
          "name": "movePieceOutOfHome",
          "outputs": [],
          "stateMutability": "nonpayable",
          "type": "function"
        },
        {
          "inputs": [
            {
              "internalType": "uint256",
              "name": "",
              "type": "uint256"
            }
          ],
          "name": "playerAddresses",
          "outputs": [
            {
              "internalType": "address",
              "name": "",
              "type": "address"
            }
          ],
          "stateMutability": "view",
          "type": "function"
        },
        {
          "inputs": [
            {
              "internalType": "address",
              "name": "",
              "type": "address"
            }
          ],
          "name": "players",
          "outputs": [
            {
              "internalType": "uint256",
              "name": "startingPosition",
              "type": "uint256"
            }
          ],
          "stateMutability": "view",
          "type": "function"
        },
        {
          "inputs": [],
          "name": "rollDice",
          "outputs": [
            {
              "internalType": "uint256",
              "name": "",
              "type": "uint256"
            }
          ],
          "stateMutability": "nonpayable",
          "type": "function"
        }
      ],
      "evm": {
        "bytecode": {
          "linkReferences": {},
          "object": "608060405234801561001057600080fd5b50611054806100206000396000f3fe608060405234801561001057600080fd5b506004361061007d5760003560e01c8063cd7c43061161005b578063cd7c4306146100ec578063d4f77b1c14610108578063e2eb41ff14610112578063fb9bdab4146101425761007d565b80630d1fed411461008257806315c6aee21461009e578063837e7cc6146100ce575b600080fd5b61009c60048036038101906100979190610952565b610160565b005b6100b860048036038101906100b39190610992565b61034d565b6040516100c59190610a00565b60405180910390f35b6100d661038c565b6040516100e39190610a2a565b60405180910390f35b61010660048036038101906101019190610992565b6104dc565b005b610110610667565b005b61012c60048036038101906101279190610a71565b6108af565b6040516101399190610a2a565b60405180910390f35b61014a6108cd565b6040516101579190610a2a565b60405180910390f35b600482106101a3576040517f08c379a000000000000000000000000000000000000000000000000000000000815260040161019a90610afb565b60405180910390fd5b6000600160003373ffffffffffffffffffffffffffffffffffffffff1673ffffffffffffffffffffffffffffffffffffffff16815260200190815260200160002090508060040183600481106101fc576101fb610b1b565b5b602091828204019190069054906101000a900460ff1615610252576040517f08c379a000000000000000000000000000000000000000000000000000000000815260040161024990610b96565b60405180910390fd5b600081600001846004811061026a57610269610b1b565b5b01549050600082600501546034846005015486856102889190610be5565b6102929190610c19565b61029c9190610c7c565b6102a69190610be5565b9050818110156102ef578260050154905060018360040186600481106102cf576102ce610b1b565b5b602091828204019190066101000a81548160ff0219169083151502179055505b8083600001866004811061030657610305610b1b565b5b01819055507f114bea2e6f511e6553b5be7e9a1158ab19a552be89598d4bd5289e3e6477eabc33868360405161033e93929190610cad565b60405180910390a15050505050565b6002818154811061035d57600080fd5b906000526020600020016000915054906101000a900473ffffffffffffffffffffffffffffffffffffffff1681565b60006002600354815481106103a4576103a3610b1b565b5b9060005260206000200160009054906101000a900473ffffffffffffffffffffffffffffffffffffffff1673ffffffffffffffffffffffffffffffffffffffff163373ffffffffffffffffffffffffffffffffffffffff161461043c576040517f08c379a000000000000000000000000000000000000000000000000000000000815260040161043390610d30565b60405180910390fd5b60006001600661044a6108d3565b6104549190610c7c565b61045e9190610be5565b905060008081548092919061047290610d50565b91905055507f1ef79941499983e5c21ea7f676dda47f58a2dd04d9b4bb110544a7b7ee7ff12333826040516104a8929190610d98565b60405180910390a160028054905060016003546104c59190610be5565b6104cf9190610c7c565b6003819055508091505090565b6004811061051f576040517f08c379a000000000000000000000000000000000000000000000000000000000815260040161051690610afb565b60405180910390fd5b6000600160003373ffffffffffffffffffffffffffffffffffffffff1673ffffffffffffffffffffffffffffffffffffffff168152602001908152602001600020905080600401826004811061057857610577610b1b565b5b602091828204019190069054906101000a900460ff166105cd576040517f08c379a00000000000000000000000000000000000000000000000000000000081526004016105c490610e0d565b60405180910390fd5b60008160040183600481106105e5576105e4610b1b565b5b602091828204019190066101000a81548160ff021916908315150217905550806005015481600001836004811061061f5761061e610b1b565b5b01819055507f114bea2e6f511e6553b5be7e9a1158ab19a552be89598d4bd5289e3e6477eabc3383836005015460405161065b93929190610cad565b60405180910390a15050565b6004600280549050106106af576040517f08c379a00000000000000000000000000000000000000000000000000000000081526004016106a690610e79565b60405180910390fd5b6000600160003373ffffffffffffffffffffffffffffffffffffffff1673ffffffffffffffffffffffffffffffffffffffff1681526020019081526020016000206005015414610734576040517f08c379a000000000000000000000000000000000000000000000000000000000815260040161072b90610ee5565b60405180910390fd5b6000600460346107449190610f05565b6002805490506107549190610f36565b90506000600160003373ffffffffffffffffffffffffffffffffffffffff1673ffffffffffffffffffffffffffffffffffffffff168152602001908152602001600020905081816005018190555060005b600481101561080e57828260000182600481106107c5576107c4610b1b565b5b018190555060018260040182600481106107e2576107e1610b1b565b5b602091828204019190066101000a81548160ff02191690831515021790555080806001019150506107a5565b506002339080600181540180825580915050600190039060005260206000200160009091909190916101000a81548173ffffffffffffffffffffffffffffffffffffffff021916908373ffffffffffffffffffffffffffffffffffffffff1602179055507f3330a6773675f31f62070870f40379f8c6d42e3761410011a4dfc42b18043d2f33836040516108a3929190610d98565b60405180910390a15050565b60016020528060005260406000206000915090508060050154905081565b60035481565b60006103e842336000546040516020016108ef93929190610fe1565b6040516020818303038152906040528051906020012060001c6109129190610c7c565b905090565b600080fd5b6000819050919050565b61092f8161091c565b811461093a57600080fd5b50565b60008135905061094c81610926565b92915050565b6000806040838503121561096957610968610917565b5b60006109778582860161093d565b92505060206109888582860161093d565b9150509250929050565b6000602082840312156109a8576109a7610917565b5b60006109b68482850161093d565b91505092915050565b600073ffffffffffffffffffffffffffffffffffffffff82169050919050565b60006109ea826109bf565b9050919050565b6109fa816109df565b82525050565b6000602082019050610a1560008301846109f1565b92915050565b610a248161091c565b82525050565b6000602082019050610a3f6000830184610a1b565b92915050565b610a4e816109df565b8114610a5957600080fd5b50565b600081359050610a6b81610a45565b92915050565b600060208284031215610a8757610a86610917565b5b6000610a9584828501610a5c565b91505092915050565b600082825260208201905092915050565b7f496e76616c696420706965636520696e64657800000000000000000000000000600082015250565b6000610ae5601383610a9e565b9150610af082610aaf565b602082019050919050565b60006020820190508181036000830152610b1481610ad8565b9050919050565b7f4e487b7100000000000000000000000000000000000000000000000000000000600052603260045260246000fd5b7f506965636520697320696e20686f6d6500000000000000000000000000000000600082015250565b6000610b80601083610a9e565b9150610b8b82610b4a565b602082019050919050565b60006020820190508181036000830152610baf81610b73565b9050919050565b7f4e487b7100000000000000000000000000000000000000000000000000000000600052601160045260246000fd5b6000610bf08261091c565b9150610bfb8361091c565b9250828201905080821115610c1357610c12610bb6565b5b92915050565b6000610c248261091c565b9150610c2f8361091c565b9250828203905081811115610c4757610c46610bb6565b5b92915050565b7f4e487b7100000000000000000000000000000000000000000000000000000000600052601260045260246000fd5b6000610c878261091c565b9150610c928361091c565b925082610ca257610ca1610c4d565b5b828206905092915050565b6000606082019050610cc260008301866109f1565b610ccf6020830185610a1b565b610cdc6040830184610a1b565b949350505050565b7f4e6f7420796f7572207475726e00000000000000000000000000000000000000600082015250565b6000610d1a600d83610a9e565b9150610d2582610ce4565b602082019050919050565b60006020820190508181036000830152610d4981610d0d565b9050919050565b6000610d5b8261091c565b91507fffffffffffffffffffffffffffffffffffffffffffffffffffffffffffffffff8203610d8d57610d8c610bb6565b5b600182019050919050565b6000604082019050610dad60008301856109f1565b610dba6020830184610a1b565b9392505050565b7f5069656365206973206e6f7420696e20686f6d65000000000000000000000000600082015250565b6000610df7601483610a9e565b9150610e0282610dc1565b602082019050919050565b60006020820190508181036000830152610e2681610dea565b9050919050565b7f47616d652069732066756c6c0000000000000000000000000000000000000000600082015250565b6000610e63600c83610a9e565b9150610e6e82610e2d565b602082019050919050565b60006020820190508181036000830152610e9281610e56565b9050919050565b7f416c7265616479206a6f696e6564000000000000000000000000000000000000600082015250565b6000610ecf600e83610a9e565b9150610eda82610e99565b602082019050919050565b60006020820190508181036000830152610efe81610ec2565b9050919050565b6000610f108261091c565b9150610f1b8361091c565b925082610f2b57610f2a610c4d565b5b828204905092915050565b6000610f418261091c565b9150610f4c8361091c565b9250828202610f5a8161091c565b91508282048414831517610f7157610f70610bb6565b5b5092915050565b6000819050919050565b610f93610f8e8261091c565b610f78565b82525050565b60008160601b9050919050565b6000610fb182610f99565b9050919050565b6000610fc382610fa6565b9050919050565b610fdb610fd6826109df565b610fb8565b82525050565b6000610fed8286610f82565b602082019150610ffd8285610fca565b60148201915061100d8284610f82565b60208201915081905094935050505056fea264697066735822122021b336d274b8191e6744787166dbc88a0243d1805d8a0331288cf5dc2da1842064736f6c63430008180033",
          "opcodes": "PUSH1 0x80 PUSH1 0x40 MSTORE CALLVALUE DUP1 ISZERO PUSH2 0x10 JUMPI PUSH1 0x0 DUP1 REVERT JUMPDEST POP PUSH2 0x1054 DUP1 PUSH2 0x20 PUSH1 0x0 CODECOPY PUSH1 0x0 RETURN INVALID PUSH1 0x80 PUSH1 0x40 MSTORE CALLVALUE DUP1 ISZERO PUSH2 0x10 JUMPI PUSH1 0x0 DUP1 REVERT JUMPDEST POP PUSH1 0x4 CALLDATASIZE LT PUSH2 0x7D JUMPI PUSH1 0x0 CALLDATALOAD PUSH1 0xE0 SHR DUP1 PUSH4 0xCD7C4306 GT PUSH2 0x5B JUMPI DUP1 PUSH4 0xCD7C4306 EQ PUSH2 0xEC JUMPI DUP1 PUSH4 0xD4F77B1C EQ PUSH2 0x108 JUMPI DUP1 PUSH4 0xE2EB41FF EQ PUSH2 0x112 JUMPI DUP1 PUSH4 0xFB9BDAB4 EQ PUSH2 0x142 JUMPI PUSH2 0x7D JUMP JUMPDEST DUP1 PUSH4 0xD1FED41 EQ PUSH2 0x82 JUMPI DUP1 PUSH4 0x15C6AEE2 EQ PUSH2 0x9E JUMPI DUP1 PUSH4 0x837E7CC6 EQ PUSH2 0xCE JUMPI JUMPDEST PUSH1 0x0 DUP1 REVERT JUMPDEST PUSH2 0x9C PUSH1 0x4 DUP1 CALLDATASIZE SUB DUP2 ADD SWAP1 PUSH2 0x97 SWAP2 SWAP1 PUSH2 0x952 JUMP JUMPDEST PUSH2 0x160 JUMP JUMPDEST STOP JUMPDEST PUSH2 0xB8 PUSH1 0x4 DUP1 CALLDATASIZE SUB DUP2 ADD SWAP1 PUSH2 0xB3 SWAP2 SWAP1 PUSH2 0x992 JUMP JUMPDEST PUSH2 0x34D JUMP JUMPDEST PUSH1 0x40 MLOAD PUSH2 0xC5 SWAP2 SWAP1 PUSH2 0xA00 JUMP JUMPDEST PUSH1 0x40 MLOAD DUP1 SWAP2 SUB SWAP1 RETURN JUMPDEST PUSH2 0xD6 PUSH2 0x38C JUMP JUMPDEST PUSH1 0x40 MLOAD PUSH2 0xE3 SWAP2 SWAP1 PUSH2 0xA2A JUMP JUMPDEST PUSH1 0x40 MLOAD DUP1 SWAP2 SUB SWAP1 RETURN JUMPDEST PUSH2 0x106 PUSH1 0x4 DUP1 CALLDATASIZE SUB DUP2 ADD SWAP1 PUSH2 0x101 SWAP2 SWAP1 PUSH2 0x992 JUMP JUMPDEST PUSH2 0x4DC JUMP JUMPDEST STOP JUMPDEST PUSH2 0x110 PUSH2 0x667 JUMP JUMPDEST STOP JUMPDEST PUSH2 0x12C PUSH1 0x4 DUP1 CALLDATASIZE SUB DUP2 ADD SWAP1 PUSH2 0x127 SWAP2 SWAP1 PUSH2 0xA71 JUMP JUMPDEST PUSH2 0x8AF JUMP JUMPDEST PUSH1 0x40 MLOAD PUSH2 0x139 SWAP2 SWAP1 PUSH2 0xA2A JUMP JUMPDEST PUSH1 0x40 MLOAD DUP1 SWAP2 SUB SWAP1 RETURN JUMPDEST PUSH2 0x14A PUSH2 0x8CD JUMP JUMPDEST PUSH1 0x40 MLOAD PUSH2 0x157 SWAP2 SWAP1 PUSH2 0xA2A JUMP JUMPDEST PUSH1 0x40 MLOAD DUP1 SWAP2 SUB SWAP1 RETURN JUMPDEST PUSH1 0x4 DUP3 LT PUSH2 0x1A3 JUMPI PUSH1 0x40 MLOAD PUSH32 0x8C379A000000000000000000000000000000000000000000000000000000000 DUP2 MSTORE PUSH1 0x4 ADD PUSH2 0x19A SWAP1 PUSH2 0xAFB JUMP JUMPDEST PUSH1 0x40 MLOAD DUP1 SWAP2 SUB SWAP1 REVERT JUMPDEST PUSH1 0x0 PUSH1 0x1 PUSH1 0x0 CALLER PUSH20 0xFFFFFFFFFFFFFFFFFFFFFFFFFFFFFFFFFFFFFFFF AND PUSH20 0xFFFFFFFFFFFFFFFFFFFFFFFFFFFFFFFFFFFFFFFF AND DUP2 MSTORE PUSH1 0x20 ADD SWAP1 DUP2 MSTORE PUSH1 0x20 ADD PUSH1 0x0 KECCAK256 SWAP1 POP DUP1 PUSH1 0x4 ADD DUP4 PUSH1 0x4 DUP2 LT PUSH2 0x1FC JUMPI PUSH2 0x1FB PUSH2 0xB1B JUMP JUMPDEST JUMPDEST PUSH1 0x20 SWAP2 DUP3 DUP3 DIV ADD SWAP2 SWAP1 MOD SWAP1 SLOAD SWAP1 PUSH2 0x100 EXP SWAP1 DIV PUSH1 0xFF AND ISZERO PUSH2 0x252 JUMPI PUSH1 0x40 MLOAD PUSH32 0x8C379A000000000000000000000000000000000000000000000000000000000 DUP2 MSTORE PUSH1 0x4 ADD PUSH2 0x249 SWAP1 PUSH2 0xB96 JUMP JUMPDEST PUSH1 0x40 MLOAD DUP1 SWAP2 SUB SWAP1 REVERT JUMPDEST PUSH1 0x0 DUP2 PUSH1 0x0 ADD DUP5 PUSH1 0x4 DUP2 LT PUSH2 0x26A JUMPI PUSH2 0x269 PUSH2 0xB1B JUMP JUMPDEST JUMPDEST ADD SLOAD SWAP1 POP PUSH1 0x0 DUP3 PUSH1 0x5 ADD SLOAD PUSH1 0x34 DUP5 PUSH1 0x5 ADD SLOAD DUP7 DUP6 PUSH2 0x288 SWAP2 SWAP1 PUSH2 0xBE5 JUMP JUMPDEST PUSH2 0x292 SWAP2 SWAP1 PUSH2 0xC19 JUMP JUMPDEST PUSH2 0x29C SWAP2 SWAP1 PUSH2 0xC7C JUMP JUMPDEST PUSH2 0x2A6 SWAP2 SWAP1 PUSH2 0xBE5 JUMP JUMPDEST SWAP1 POP DUP2 DUP2 LT ISZERO PUSH2 0x2EF JUMPI DUP3 PUSH1 0x5 ADD SLOAD SWAP1 POP PUSH1 0x1 DUP4 PUSH1 0x4 ADD DUP7 PUSH1 0x4 DUP2 LT PUSH2 0x2CF JUMPI PUSH2 0x2CE PUSH2 0xB1B JUMP JUMPDEST JUMPDEST PUSH1 0x20 SWAP2 DUP3 DUP3 DIV ADD SWAP2 SWAP1 MOD PUSH2 0x100 EXP DUP2 SLOAD DUP2 PUSH1 0xFF MUL NOT AND SWAP1 DUP4 ISZERO ISZERO MUL OR SWAP1 SSTORE POP JUMPDEST DUP1 DUP4 PUSH1 0x0 ADD DUP7 PUSH1 0x4 DUP2 LT PUSH2 0x306 JUMPI PUSH2 0x305 PUSH2 0xB1B JUMP JUMPDEST JUMPDEST ADD DUP2 SWAP1 SSTORE POP PUSH32 0x114BEA2E6F511E6553B5BE7E9A1158AB19A552BE89598D4BD5289E3E6477EABC CALLER DUP7 DUP4 PUSH1 0x40 MLOAD PUSH2 0x33E SWAP4 SWAP3 SWAP2 SWAP1 PUSH2 0xCAD JUMP JUMPDEST PUSH1 0x40 MLOAD DUP1 SWAP2 SUB SWAP1 LOG1 POP POP POP POP POP JUMP JUMPDEST PUSH1 0x2 DUP2 DUP2 SLOAD DUP2 LT PUSH2 0x35D JUMPI PUSH1 0x0 DUP1 REVERT JUMPDEST SWAP1 PUSH1 0x0 MSTORE PUSH1 0x20 PUSH1 0x0 KECCAK256 ADD PUSH1 0x0 SWAP2 POP SLOAD SWAP1 PUSH2 0x100 EXP SWAP1 DIV PUSH20 0xFFFFFFFFFFFFFFFFFFFFFFFFFFFFFFFFFFFFFFFF AND DUP2 JUMP JUMPDEST PUSH1 0x0 PUSH1 0x2 PUSH1 0x3 SLOAD DUP2 SLOAD DUP2 LT PUSH2 0x3A4 JUMPI PUSH2 0x3A3 PUSH2 0xB1B JUMP JUMPDEST JUMPDEST SWAP1 PUSH1 0x0 MSTORE PUSH1 0x20 PUSH1 0x0 KECCAK256 ADD PUSH1 0x0 SWAP1 SLOAD SWAP1 PUSH2 0x100 EXP SWAP1 DIV PUSH20 0xFFFFFFFFFFFFFFFFFFFFFFFFFFFFFFFFFFFFFFFF AND PUSH20 0xFFFFFFFFFFFFFFFFFFFFFFFFFFFFFFFFFFFFFFFF AND CALLER PUSH20 0xFFFFFFFFFFFFFFFFFFFFFFFFFFFFFFFFFFFFFFFF AND EQ PUSH2 0x43C JUMPI PUSH1 0x40 MLOAD PUSH32 0x8C379A000000000000000000000000000000000000000000000000000000000 DUP2 MSTORE PUSH1 0x4 ADD PUSH2 0x433 SWAP1 PUSH2 0xD30 JUMP JUMPDEST PUSH1 0x40 MLOAD DUP1 SWAP2 SUB SWAP1 REVERT JUMPDEST PUSH1 0x0 PUSH1 0x1 PUSH1 0x6 PUSH2 0x44A PUSH2 0x8D3 JUMP JUMPDEST PUSH2 0x454 SWAP2 SWAP1 PUSH2 0xC7C JUMP JUMPDEST PUSH2 0x45E SWAP2 SWAP1 PUSH2 0xBE5 JUMP JUMPDEST SWAP1 POP PUSH1 0x0 DUP1 DUP2 SLOAD DUP1 SWAP3 SWAP2 SWAP1 PUSH2 0x472 SWAP1 PUSH2 0xD50 JUMP JUMPDEST SWAP2 SWAP1 POP SSTORE POP PUSH32 0x1EF79941499983E5C21EA7F676DDA47F58A2DD04D9B4BB110544A7B7EE7FF123 CALLER DUP3 PUSH1 0x40 MLOAD PUSH2 0x4A8 SWAP3 SWAP2 SWAP1 PUSH2 0xD98 JUMP JUMPDEST PUSH1 0x40 MLOAD DUP1 SWAP2 SUB SWAP1 LOG1 PUSH1 0x2 DUP1 SLOAD SWAP1 POP PUSH1 0x1 PUSH1 0x3 SLOAD PUSH2 0x4C5 SWAP2 SWAP1 PUSH2 0xBE5 JUMP JUMPDEST PUSH2 0x4CF SWAP2 SWAP1 PUSH2 0xC7C JUMP JUMPDEST PUSH1 0x3 DUP2 SWAP1 SSTORE POP DUP1 SWAP2 POP POP SWAP1 JUMP JUMPDEST PUSH1 0x4 DUP2 LT PUSH2 0x51F JUMPI PUSH1 0x40 MLOAD PUSH32 0x8C379A000000000000000000000000000000000000000000000000000000000 DUP2 MSTORE PUSH1 0x4 ADD PUSH2 0x516 SWAP1 PUSH2 0xAFB JUMP JUMPDEST PUSH1 0x40 MLOAD DUP1 SWAP2 SUB SWAP1 REVERT JUMPDEST PUSH1 0x0 PUSH1 0x1 PUSH1 0x0 CALLER PUSH20 0xFFFFFFFFFFFFFFFFFFFFFFFFFFFFFFFFFFFFFFFF AND PUSH20 0xFFFFFFFFFFFFFFFFFFFFFFFFFFFFFFFFFFFFFFFF AND DUP2 MSTORE PUSH1 0x20 ADD SWAP1 DUP2 MSTORE PUSH1 0x20 ADD PUSH1 0x0 KECCAK256 SWAP1 POP DUP1 PUSH1 0x4 ADD DUP3 PUSH1 0x4 DUP2 LT PUSH2 0x578 JUMPI PUSH2 0x577 PUSH2 0xB1B JUMP JUMPDEST JUMPDEST PUSH1 0x20 SWAP2 DUP3 DUP3 DIV ADD SWAP2 SWAP1 MOD SWAP1 SLOAD SWAP1 PUSH2 0x100 EXP SWAP1 DIV PUSH1 0xFF AND PUSH2 0x5CD JUMPI PUSH1 0x40 MLOAD PUSH32 0x8C379A000000000000000000000000000000000000000000000000000000000 DUP2 MSTORE PUSH1 0x4 ADD PUSH2 0x5C4 SWAP1 PUSH2 0xE0D JUMP JUMPDEST PUSH1 0x40 MLOAD DUP1 SWAP2 SUB SWAP1 REVERT JUMPDEST PUSH1 0x0 DUP2 PUSH1 0x4 ADD DUP4 PUSH1 0x4 DUP2 LT PUSH2 0x5E5 JUMPI PUSH2 0x5E4 PUSH2 0xB1B JUMP JUMPDEST JUMPDEST PUSH1 0x20 SWAP2 DUP3 DUP3 DIV ADD SWAP2 SWAP1 MOD PUSH2 0x100 EXP DUP2 SLOAD DUP2 PUSH1 0xFF MUL NOT AND SWAP1 DUP4 ISZERO ISZERO MUL OR SWAP1 SSTORE POP DUP1 PUSH1 0x5 ADD SLOAD DUP2 PUSH1 0x0 ADD DUP4 PUSH1 0x4 DUP2 LT PUSH2 0x61F JUMPI PUSH2 0x61E PUSH2 0xB1B JUMP JUMPDEST JUMPDEST ADD DUP2 SWAP1 SSTORE POP PUSH32 0x114BEA2E6F511E6553B5BE7E9A1158AB19A552BE89598D4BD5289E3E6477EABC CALLER DUP4 DUP4 PUSH1 0x5 ADD SLOAD PUSH1 0x40 MLOAD PUSH2 0x65B SWAP4 SWAP3 SWAP2 SWAP1 PUSH2 0xCAD JUMP JUMPDEST PUSH1 0x40 MLOAD DUP1 SWAP2 SUB SWAP1 LOG1 POP POP JUMP JUMPDEST PUSH1 0x4 PUSH1 0x2 DUP1 SLOAD SWAP1 POP LT PUSH2 0x6AF JUMPI PUSH1 0x40 MLOAD PUSH32 0x8C379A000000000000000000000000000000000000000000000000000000000 DUP2 MSTORE PUSH1 0x4 ADD PUSH2 0x6A6 SWAP1 PUSH2 0xE79 JUMP JUMPDEST PUSH1 0x40 MLOAD DUP1 SWAP2 SUB SWAP1 REVERT JUMPDEST PUSH1 0x0 PUSH1 0x1 PUSH1 0x0 CALLER PUSH20 0xFFFFFFFFFFFFFFFFFFFFFFFFFFFFFFFFFFFFFFFF AND PUSH20 0xFFFFFFFFFFFFFFFFFFFFFFFFFFFFFFFFFFFFFFFF AND DUP2 MSTORE PUSH1 0x20 ADD SWAP1 DUP2 MSTORE PUSH1 0x20 ADD PUSH1 0x0 KECCAK256 PUSH1 0x5 ADD SLOAD EQ PUSH2 0x734 JUMPI PUSH1 0x40 MLOAD PUSH32 0x8C379A000000000000000000000000000000000000000000000000000000000 DUP2 MSTORE PUSH1 0x4 ADD PUSH2 0x72B SWAP1 PUSH2 0xEE5 JUMP JUMPDEST PUSH1 0x40 MLOAD DUP1 SWAP2 SUB SWAP1 REVERT JUMPDEST PUSH1 0x0 PUSH1 0x4 PUSH1 0x34 PUSH2 0x744 SWAP2 SWAP1 PUSH2 0xF05 JUMP JUMPDEST PUSH1 0x2 DUP1 SLOAD SWAP1 POP PUSH2 0x754 SWAP2 SWAP1 PUSH2 0xF36 JUMP JUMPDEST SWAP1 POP PUSH1 0x0 PUSH1 0x1 PUSH1 0x0 CALLER PUSH20 0xFFFFFFFFFFFFFFFFFFFFFFFFFFFFFFFFFFFFFFFF AND PUSH20 0xFFFFFFFFFFFFFFFFFFFFFFFFFFFFFFFFFFFFFFFF AND DUP2 MSTORE PUSH1 0x20 ADD SWAP1 DUP2 MSTORE PUSH1 0x20 ADD PUSH1 0x0 KECCAK256 SWAP1 POP DUP2 DUP2 PUSH1 0x5 ADD DUP2 SWAP1 SSTORE POP PUSH1 0x0 JUMPDEST PUSH1 0x4 DUP2 LT ISZERO PUSH2 0x80E JUMPI DUP3 DUP3 PUSH1 0x0 ADD DUP3 PUSH1 0x4 DUP2 LT PUSH2 0x7C5 JUMPI PUSH2 0x7C4 PUSH2 0xB1B JUMP JUMPDEST JUMPDEST ADD DUP2 SWAP1 SSTORE POP PUSH1 0x1 DUP3 PUSH1 0x4 ADD DUP3 PUSH1 0x4 DUP2 LT PUSH2 0x7E2 JUMPI PUSH2 0x7E1 PUSH2 0xB1B JUMP JUMPDEST JUMPDEST PUSH1 0x20 SWAP2 DUP3 DUP3 DIV ADD SWAP2 SWAP1 MOD PUSH2 0x100 EXP DUP2 SLOAD DUP2 PUSH1 0xFF MUL NOT AND SWAP1 DUP4 ISZERO ISZERO MUL OR SWAP1 SSTORE POP DUP1 DUP1 PUSH1 0x1 ADD SWAP2 POP POP PUSH2 0x7A5 JUMP JUMPDEST POP PUSH1 0x2 CALLER SWAP1 DUP1 PUSH1 0x1 DUP2 SLOAD ADD DUP1 DUP3 SSTORE DUP1 SWAP2 POP POP PUSH1 0x1 SWAP1 SUB SWAP1 PUSH1 0x0 MSTORE PUSH1 0x20 PUSH1 0x0 KECCAK256 ADD PUSH1 0x0 SWAP1 SWAP2 SWAP1 SWAP2 SWAP1 SWAP2 PUSH2 0x100 EXP DUP2 SLOAD DUP2 PUSH20 0xFFFFFFFFFFFFFFFFFFFFFFFFFFFFFFFFFFFFFFFF MUL NOT AND SWAP1 DUP4 PUSH20 0xFFFFFFFFFFFFFFFFFFFFFFFFFFFFFFFFFFFFFFFF AND MUL OR SWAP1 SSTORE POP PUSH32 0x3330A6773675F31F62070870F40379F8C6D42E3761410011A4DFC42B18043D2F CALLER DUP4 PUSH1 0x40 MLOAD PUSH2 0x8A3 SWAP3 SWAP2 SWAP1 PUSH2 0xD98 JUMP JUMPDEST PUSH1 0x40 MLOAD DUP1 SWAP2 SUB SWAP1 LOG1 POP POP JUMP JUMPDEST PUSH1 0x1 PUSH1 0x20 MSTORE DUP1 PUSH1 0x0 MSTORE PUSH1 0x40 PUSH1 0x0 KECCAK256 PUSH1 0x0 SWAP2 POP SWAP1 POP DUP1 PUSH1 0x5 ADD SLOAD SWAP1 POP DUP2 JUMP JUMPDEST PUSH1 0x3 SLOAD DUP2 JUMP JUMPDEST PUSH1 0x0 PUSH2 0x3E8 TIMESTAMP CALLER PUSH1 0x0 SLOAD PUSH1 0x40 MLOAD PUSH1 0x20 ADD PUSH2 0x8EF SWAP4 SWAP3 SWAP2 SWAP1 PUSH2 0xFE1 JUMP JUMPDEST PUSH1 0x40 MLOAD PUSH1 0x20 DUP2 DUP4 SUB SUB DUP2 MSTORE SWAP1 PUSH1 0x40 MSTORE DUP1 MLOAD SWAP1 PUSH1 0x20 ADD KECCAK256 PUSH1 0x0 SHR PUSH2 0x912 SWAP2 SWAP1 PUSH2 0xC7C JUMP JUMPDEST SWAP1 POP SWAP1 JUMP JUMPDEST PUSH1 0x0 DUP1 REVERT JUMPDEST PUSH1 0x0 DUP2 SWAP1 POP SWAP2 SWAP1 POP JUMP JUMPDEST PUSH2 0x92F DUP2 PUSH2 0x91C JUMP JUMPDEST DUP2 EQ PUSH2 0x93A JUMPI PUSH1 0x0 DUP1 REVERT JUMPDEST POP JUMP JUMPDEST PUSH1 0x0 DUP2 CALLDATALOAD SWAP1 POP PUSH2 0x94C DUP2 PUSH2 0x926 JUMP JUMPDEST SWAP3 SWAP2 POP POP JUMP JUMPDEST PUSH1 0x0 DUP1 PUSH1 0x40 DUP4 DUP6 SUB SLT ISZERO PUSH2 0x969 JUMPI PUSH2 0x968 PUSH2 0x917 JUMP JUMPDEST JUMPDEST PUSH1 0x0 PUSH2 0x977 DUP6 DUP3 DUP7 ADD PUSH2 0x93D JUMP JUMPDEST SWAP3 POP POP PUSH1 0x20 PUSH2 0x988 DUP6 DUP3 DUP7 ADD PUSH2 0x93D JUMP JUMPDEST SWAP2 POP POP SWAP3 POP SWAP3 SWAP1 POP JUMP JUMPDEST PUSH1 0x0 PUSH1 0x20 DUP3 DUP5 SUB SLT ISZERO PUSH2 0x9A8 JUMPI PUSH2 0x9A7 PUSH2 0x917 JUMP JUMPDEST JUMPDEST PUSH1 0x0 PUSH2 0x9B6 DUP5 DUP3 DUP6 ADD PUSH2 0x93D JUMP JUMPDEST SWAP2 POP POP SWAP3 SWAP2 POP POP JUMP JUMPDEST PUSH1 0x0 PUSH20 0xFFFFFFFFFFFFFFFFFFFFFFFFFFFFFFFFFFFFFFFF DUP3 AND SWAP1 POP SWAP2 SWAP1 POP JUMP JUMPDEST PUSH1 0x0 PUSH2 0x9EA DUP3 PUSH2 0x9BF JUMP JUMPDEST SWAP1 POP SWAP2 SWAP1 POP JUMP JUMPDEST PUSH2 0x9FA DUP2 PUSH2 0x9DF JUMP JUMPDEST DUP3 MSTORE POP POP JUMP JUMPDEST PUSH1 0x0 PUSH1 0x20 DUP3 ADD SWAP1 POP PUSH2 0xA15 PUSH1 0x0 DUP4 ADD DUP5 PUSH2 0x9F1 JUMP JUMPDEST SWAP3 SWAP2 POP POP JUMP JUMPDEST PUSH2 0xA24 DUP2 PUSH2 0x91C JUMP JUMPDEST DUP3 MSTORE POP POP JUMP JUMPDEST PUSH1 0x0 PUSH1 0x20 DUP3 ADD SWAP1 POP PUSH2 0xA3F PUSH1 0x0 DUP4 ADD DUP5 PUSH2 0xA1B JUMP JUMPDEST SWAP3 SWAP2 POP POP JUMP JUMPDEST PUSH2 0xA4E DUP2 PUSH2 0x9DF JUMP JUMPDEST DUP2 EQ PUSH2 0xA59 JUMPI PUSH1 0x0 DUP1 REVERT JUMPDEST POP JUMP JUMPDEST PUSH1 0x0 DUP2 CALLDATALOAD SWAP1 POP PUSH2 0xA6B DUP2 PUSH2 0xA45 JUMP JUMPDEST SWAP3 SWAP2 POP POP JUMP JUMPDEST PUSH1 0x0 PUSH1 0x20 DUP3 DUP5 SUB SLT ISZERO PUSH2 0xA87 JUMPI PUSH2 0xA86 PUSH2 0x917 JUMP JUMPDEST JUMPDEST PUSH1 0x0 PUSH2 0xA95 DUP5 DUP3 DUP6 ADD PUSH2 0xA5C JUMP JUMPDEST SWAP2 POP POP SWAP3 SWAP2 POP POP JUMP JUMPDEST PUSH1 0x0 DUP3 DUP3 MSTORE PUSH1 0x20 DUP3 ADD SWAP1 POP SWAP3 SWAP2 POP POP JUMP JUMPDEST PUSH32 0x496E76616C696420706965636520696E64657800000000000000000000000000 PUSH1 0x0 DUP3 ADD MSTORE POP JUMP JUMPDEST PUSH1 0x0 PUSH2 0xAE5 PUSH1 0x13 DUP4 PUSH2 0xA9E JUMP JUMPDEST SWAP2 POP PUSH2 0xAF0 DUP3 PUSH2 0xAAF JUMP JUMPDEST PUSH1 0x20 DUP3 ADD SWAP1 POP SWAP2 SWAP1 POP JUMP JUMPDEST PUSH1 0x0 PUSH1 0x20 DUP3 ADD SWAP1 POP DUP2 DUP2 SUB PUSH1 0x0 DUP4 ADD MSTORE PUSH2 0xB14 DUP2 PUSH2 0xAD8 JUMP JUMPDEST SWAP1 POP SWAP2 SWAP1 POP JUMP JUMPDEST PUSH32 0x4E487B7100000000000000000000000000000000000000000000000000000000 PUSH1 0x0 MSTORE PUSH1 0x32 PUSH1 0x4 MSTORE PUSH1 0x24 PUSH1 0x0 REVERT JUMPDEST PUSH32 0x506965636520697320696E20686F6D6500000000000000000000000000000000 PUSH1 0x0 DUP3 ADD MSTORE POP JUMP JUMPDEST PUSH1 0x0 PUSH2 0xB80 PUSH1 0x10 DUP4 PUSH2 0xA9E JUMP JUMPDEST SWAP2 POP PUSH2 0xB8B DUP3 PUSH2 0xB4A JUMP JUMPDEST PUSH1 0x20 DUP3 ADD SWAP1 POP SWAP2 SWAP1 POP JUMP JUMPDEST PUSH1 0x0 PUSH1 0x20 DUP3 ADD SWAP1 POP DUP2 DUP2 SUB PUSH1 0x0 DUP4 ADD MSTORE PUSH2 0xBAF DUP2 PUSH2 0xB73 JUMP JUMPDEST SWAP1 POP SWAP2 SWAP1 POP JUMP JUMPDEST PUSH32 0x4E487B7100000000000000000000000000000000000000000000000000000000 PUSH1 0x0 MSTORE PUSH1 0x11 PUSH1 0x4 MSTORE PUSH1 0x24 PUSH1 0x0 REVERT JUMPDEST PUSH1 0x0 PUSH2 0xBF0 DUP3 PUSH2 0x91C JUMP JUMPDEST SWAP2 POP PUSH2 0xBFB DUP4 PUSH2 0x91C JUMP JUMPDEST SWAP3 POP DUP3 DUP3 ADD SWAP1 POP DUP1 DUP3 GT ISZERO PUSH2 0xC13 JUMPI PUSH2 0xC12 PUSH2 0xBB6 JUMP JUMPDEST JUMPDEST SWAP3 SWAP2 POP POP JUMP JUMPDEST PUSH1 0x0 PUSH2 0xC24 DUP3 PUSH2 0x91C JUMP JUMPDEST SWAP2 POP PUSH2 0xC2F DUP4 PUSH2 0x91C JUMP JUMPDEST SWAP3 POP DUP3 DUP3 SUB SWAP1 POP DUP2 DUP2 GT ISZERO PUSH2 0xC47 JUMPI PUSH2 0xC46 PUSH2 0xBB6 JUMP JUMPDEST JUMPDEST SWAP3 SWAP2 POP POP JUMP JUMPDEST PUSH32 0x4E487B7100000000000000000000000000000000000000000000000000000000 PUSH1 0x0 MSTORE PUSH1 0x12 PUSH1 0x4 MSTORE PUSH1 0x24 PUSH1 0x0 REVERT JUMPDEST PUSH1 0x0 PUSH2 0xC87 DUP3 PUSH2 0x91C JUMP JUMPDEST SWAP2 POP PUSH2 0xC92 DUP4 PUSH2 0x91C JUMP JUMPDEST SWAP3 POP DUP3 PUSH2 0xCA2 JUMPI PUSH2 0xCA1 PUSH2 0xC4D JUMP JUMPDEST JUMPDEST DUP3 DUP3 MOD SWAP1 POP SWAP3 SWAP2 POP POP JUMP JUMPDEST PUSH1 0x0 PUSH1 0x60 DUP3 ADD SWAP1 POP PUSH2 0xCC2 PUSH1 0x0 DUP4 ADD DUP7 PUSH2 0x9F1 JUMP JUMPDEST PUSH2 0xCCF PUSH1 0x20 DUP4 ADD DUP6 PUSH2 0xA1B JUMP JUMPDEST PUSH2 0xCDC PUSH1 0x40 DUP4 ADD DUP5 PUSH2 0xA1B JUMP JUMPDEST SWAP5 SWAP4 POP POP POP POP JUMP JUMPDEST PUSH32 0x4E6F7420796F7572207475726E00000000000000000000000000000000000000 PUSH1 0x0 DUP3 ADD MSTORE POP JUMP JUMPDEST PUSH1 0x0 PUSH2 0xD1A PUSH1 0xD DUP4 PUSH2 0xA9E JUMP JUMPDEST SWAP2 POP PUSH2 0xD25 DUP3 PUSH2 0xCE4 JUMP JUMPDEST PUSH1 0x20 DUP3 ADD SWAP1 POP SWAP2 SWAP1 POP JUMP JUMPDEST PUSH1 0x0 PUSH1 0x20 DUP3 ADD SWAP1 POP DUP2 DUP2 SUB PUSH1 0x0 DUP4 ADD MSTORE PUSH2 0xD49 DUP2 PUSH2 0xD0D JUMP JUMPDEST SWAP1 POP SWAP2 SWAP1 POP JUMP JUMPDEST PUSH1 0x0 PUSH2 0xD5B DUP3 PUSH2 0x91C JUMP JUMPDEST SWAP2 POP PUSH32 0xFFFFFFFFFFFFFFFFFFFFFFFFFFFFFFFFFFFFFFFFFFFFFFFFFFFFFFFFFFFFFFFF DUP3 SUB PUSH2 0xD8D JUMPI PUSH2 0xD8C PUSH2 0xBB6 JUMP JUMPDEST JUMPDEST PUSH1 0x1 DUP3 ADD SWAP1 POP SWAP2 SWAP1 POP JUMP JUMPDEST PUSH1 0x0 PUSH1 0x40 DUP3 ADD SWAP1 POP PUSH2 0xDAD PUSH1 0x0 DUP4 ADD DUP6 PUSH2 0x9F1 JUMP JUMPDEST PUSH2 0xDBA PUSH1 0x20 DUP4 ADD DUP5 PUSH2 0xA1B JUMP JUMPDEST SWAP4 SWAP3 POP POP POP JUMP JUMPDEST PUSH32 0x5069656365206973206E6F7420696E20686F6D65000000000000000000000000 PUSH1 0x0 DUP3 ADD MSTORE POP JUMP JUMPDEST PUSH1 0x0 PUSH2 0xDF7 PUSH1 0x14 DUP4 PUSH2 0xA9E JUMP JUMPDEST SWAP2 POP PUSH2 0xE02 DUP3 PUSH2 0xDC1 JUMP JUMPDEST PUSH1 0x20 DUP3 ADD SWAP1 POP SWAP2 SWAP1 POP JUMP JUMPDEST PUSH1 0x0 PUSH1 0x20 DUP3 ADD SWAP1 POP DUP2 DUP2 SUB PUSH1 0x0 DUP4 ADD MSTORE PUSH2 0xE26 DUP2 PUSH2 0xDEA JUMP JUMPDEST SWAP1 POP SWAP2 SWAP1 POP JUMP JUMPDEST PUSH32 0x47616D652069732066756C6C0000000000000000000000000000000000000000 PUSH1 0x0 DUP3 ADD MSTORE POP JUMP JUMPDEST PUSH1 0x0 PUSH2 0xE63 PUSH1 0xC DUP4 PUSH2 0xA9E JUMP JUMPDEST SWAP2 POP PUSH2 0xE6E DUP3 PUSH2 0xE2D JUMP JUMPDEST PUSH1 0x20 DUP3 ADD SWAP1 POP SWAP2 SWAP1 POP JUMP JUMPDEST PUSH1 0x0 PUSH1 0x20 DUP3 ADD SWAP1 POP DUP2 DUP2 SUB PUSH1 0x0 DUP4 ADD MSTORE PUSH2 0xE92 DUP2 PUSH2 0xE56 JUMP JUMPDEST SWAP1 POP SWAP2 SWAP1 POP JUMP JUMPDEST PUSH32 0x416C7265616479206A6F696E6564000000000000000000000000000000000000 PUSH1 0x0 DUP3 ADD MSTORE POP JUMP JUMPDEST PUSH1 0x0 PUSH2 0xECF PUSH1 0xE DUP4 PUSH2 0xA9E JUMP JUMPDEST SWAP2 POP PUSH2 0xEDA DUP3 PUSH2 0xE99 JUMP JUMPDEST PUSH1 0x20 DUP3 ADD SWAP1 POP SWAP2 SWAP1 POP JUMP JUMPDEST PUSH1 0x0 PUSH1 0x20 DUP3 ADD SWAP1 POP DUP2 DUP2 SUB PUSH1 0x0 DUP4 ADD MSTORE PUSH2 0xEFE DUP2 PUSH2 0xEC2 JUMP JUMPDEST SWAP1 POP SWAP2 SWAP1 POP JUMP JUMPDEST PUSH1 0x0 PUSH2 0xF10 DUP3 PUSH2 0x91C JUMP JUMPDEST SWAP2 POP PUSH2 0xF1B DUP4 PUSH2 0x91C JUMP JUMPDEST SWAP3 POP DUP3 PUSH2 0xF2B JUMPI PUSH2 0xF2A PUSH2 0xC4D JUMP JUMPDEST JUMPDEST DUP3 DUP3 DIV SWAP1 POP SWAP3 SWAP2 POP POP JUMP JUMPDEST PUSH1 0x0 PUSH2 0xF41 DUP3 PUSH2 0x91C JUMP JUMPDEST SWAP2 POP PUSH2 0xF4C DUP4 PUSH2 0x91C JUMP JUMPDEST SWAP3 POP DUP3 DUP3 MUL PUSH2 0xF5A DUP2 PUSH2 0x91C JUMP JUMPDEST SWAP2 POP DUP3 DUP3 DIV DUP5 EQ DUP4 ISZERO OR PUSH2 0xF71 JUMPI PUSH2 0xF70 PUSH2 0xBB6 JUMP JUMPDEST JUMPDEST POP SWAP3 SWAP2 POP POP JUMP JUMPDEST PUSH1 0x0 DUP2 SWAP1 POP SWAP2 SWAP1 POP JUMP JUMPDEST PUSH2 0xF93 PUSH2 0xF8E DUP3 PUSH2 0x91C JUMP JUMPDEST PUSH2 0xF78 JUMP JUMPDEST DUP3 MSTORE POP POP JUMP JUMPDEST PUSH1 0x0 DUP2 PUSH1 0x60 SHL SWAP1 POP SWAP2 SWAP1 POP JUMP JUMPDEST PUSH1 0x0 PUSH2 0xFB1 DUP3 PUSH2 0xF99 JUMP JUMPDEST SWAP1 POP SWAP2 SWAP1 POP JUMP JUMPDEST PUSH1 0x0 PUSH2 0xFC3 DUP3 PUSH2 0xFA6 JUMP JUMPDEST SWAP1 POP SWAP2 SWAP1 POP JUMP JUMPDEST PUSH2 0xFDB PUSH2 0xFD6 DUP3 PUSH2 0x9DF JUMP JUMPDEST PUSH2 0xFB8 JUMP JUMPDEST DUP3 MSTORE POP POP JUMP JUMPDEST PUSH1 0x0 PUSH2 0xFED DUP3 DUP7 PUSH2 0xF82 JUMP JUMPDEST PUSH1 0x20 DUP3 ADD SWAP2 POP PUSH2 0xFFD DUP3 DUP6 PUSH2 0xFCA JUMP JUMPDEST PUSH1 0x14 DUP3 ADD SWAP2 POP PUSH2 0x100D DUP3 DUP5 PUSH2 0xF82 JUMP JUMPDEST PUSH1 0x20 DUP3 ADD SWAP2 POP DUP2 SWAP1 POP SWAP5 SWAP4 POP POP POP POP JUMP INVALID LOG2 PUSH5 0x6970667358 0x22 SLT KECCAK256 0x21 0xB3 CALLDATASIZE 0xD2 PUSH21 0xB8191E6744787166DBC88A0243D1805D8A0331288C CREATE2 0xDC 0x2D LOG1 DUP5 KECCAK256 PUSH5 0x736F6C6343 STOP ADDMOD XOR STOP CALLER "
        },
        "methodIdentifiers": {
          "currentPlayerIndex()": "fb9bdab4",
          "joinGame()": "d4f77b1c",
          "movePiece(uint256,uint256)": "0d1fed41",
          "movePieceOutOfHome(uint256)": "cd7c4306",
          "playerAddresses(uint256)": "15c6aee2",
          "players(address)": "e2eb41ff",
          "rollDice()": "837e7cc6"
        }
      }
    }
  }
}