{
  "_format": "hh-sol-artifact-1",
  "contractName": "LudoGame",
  "sourceName": "contracts/ludo.sol",
  "abi": [
    {
      "anonymous": false,
      "inputs": [
        {
          "indexed": false,
          "internalType": "address",
          "name": "player",
          "type": "address"
        },
        {
          "indexed": false,
          "internalType": "uint256",
          "name": "roll",
          "type": "uint256"
        }
      ],
      "name": "DiceRolled",
      "type": "event"
    },
    {
      "anonymous": false,
      "inputs": [
        {
          "indexed": false,
          "internalType": "address",
          "name": "player",
          "type": "address"
        },
        {
          "indexed": false,
          "internalType": "uint256",
          "name": "pieceIndex",
          "type": "uint256"
        },
        {
          "indexed": false,
          "internalType": "uint256",
          "name": "newPosition",
          "type": "uint256"
        }
      ],
      "name": "PieceMoved",
      "type": "event"
    },
    {
      "anonymous": false,
      "inputs": [
        {
          "indexed": false,
          "internalType": "address",
          "name": "player",
          "type": "address"
        },
        {
          "indexed": false,
          "internalType": "uint256",
          "name": "startingPosition",
          "type": "uint256"
        }
      ],
      "name": "PlayerJoined",
      "type": "event"
    },
    {
      "inputs": [],
      "name": "currentPlayerIndex",
      "outputs": [
        {
          "internalType": "uint256",
          "name": "",
          "type": "uint256"
        }
      ],
      "stateMutability": "view",
      "type": "function"
    },
    {
      "inputs": [],
      "name": "joinGame",
      "outputs": [],
      "stateMutability": "nonpayable",
      "type": "function"
    },
    {
      "inputs": [
        {
          "internalType": "uint256",
          "name": "pieceIndex",
          "type": "uint256"
        },
        {
          "internalType": "uint256",
          "name": "steps",
          "type": "uint256"
        }
      ],
      "name": "movePiece",
      "outputs": [],
      "stateMutability": "nonpayable",
      "type": "function"
    },
    {
      "inputs": [
        {
          "internalType": "uint256",
          "name": "pieceIndex",
          "type": "uint256"
        }
      ],
      "name": "movePieceOutOfHome",
      "outputs": [],
      "stateMutability": "nonpayable",
      "type": "function"
    },
    {
      "inputs": [
        {
          "internalType": "uint256",
          "name": "",
          "type": "uint256"
        }
      ],
      "name": "playerAddresses",
      "outputs": [
        {
          "internalType": "address",
          "name": "",
          "type": "address"
        }
      ],
      "stateMutability": "view",
      "type": "function"
    },
    {
      "inputs": [
        {
          "internalType": "address",
          "name": "",
          "type": "address"
        }
      ],
      "name": "players",
      "outputs": [
        {
          "internalType": "uint256",
          "name": "startingPosition",
          "type": "uint256"
        }
      ],
      "stateMutability": "view",
      "type": "function"
    },
    {
      "inputs": [],
      "name": "rollDice",
      "outputs": [
        {
          "internalType": "uint256",
          "name": "",
          "type": "uint256"
        }
      ],
      "stateMutability": "nonpayable",
      "type": "function"
    }
  ],
  "bytecode": "0x608060405234801561001057600080fd5b50611054806100206000396000f3fe608060405234801561001057600080fd5b506004361061007d5760003560e01c8063cd7c43061161005b578063cd7c4306146100ec578063d4f77b1c14610108578063e2eb41ff14610112578063fb9bdab4146101425761007d565b80630d1fed411461008257806315c6aee21461009e578063837e7cc6146100ce575b600080fd5b61009c60048036038101906100979190610952565b610160565b005b6100b860048036038101906100b39190610992565b61034d565b6040516100c59190610a00565b60405180910390f35b6100d661038c565b6040516100e39190610a2a565b60405180910390f35b61010660048036038101906101019190610992565b6104dc565b005b610110610667565b005b61012c60048036038101906101279190610a71565b6108af565b6040516101399190610a2a565b60405180910390f35b61014a6108cd565b6040516101579190610a2a565b60405180910390f35b600482106101a3576040517f08c379a000000000000000000000000000000000000000000000000000000000815260040161019a90610afb565b60405180910390fd5b6000600160003373ffffffffffffffffffffffffffffffffffffffff1673ffffffffffffffffffffffffffffffffffffffff16815260200190815260200160002090508060040183600481106101fc576101fb610b1b565b5b602091828204019190069054906101000a900460ff1615610252576040517f08c379a000000000000000000000000000000000000000000000000000000000815260040161024990610b96565b60405180910390fd5b600081600001846004811061026a57610269610b1b565b5b01549050600082600501546034846005015486856102889190610be5565b6102929190610c19565b61029c9190610c7c565b6102a69190610be5565b9050818110156102ef578260050154905060018360040186600481106102cf576102ce610b1b565b5b602091828204019190066101000a81548160ff0219169083151502179055505b8083600001866004811061030657610305610b1b565b5b01819055507f114bea2e6f511e6553b5be7e9a1158ab19a552be89598d4bd5289e3e6477eabc33868360405161033e93929190610cad565b60405180910390a15050505050565b6002818154811061035d57600080fd5b906000526020600020016000915054906101000a900473ffffffffffffffffffffffffffffffffffffffff1681565b60006002600354815481106103a4576103a3610b1b565b5b9060005260206000200160009054906101000a900473ffffffffffffffffffffffffffffffffffffffff1673ffffffffffffffffffffffffffffffffffffffff163373ffffffffffffffffffffffffffffffffffffffff161461043c576040517f08c379a000000000000000000000000000000000000000000000000000000000815260040161043390610d30565b60405180910390fd5b60006001600661044a6108d3565b6104549190610c7c565b61045e9190610be5565b905060008081548092919061047290610d50565b91905055507f1ef79941499983e5c21ea7f676dda47f58a2dd04d9b4bb110544a7b7ee7ff12333826040516104a8929190610d98565b60405180910390a160028054905060016003546104c59190610be5565b6104cf9190610c7c565b6003819055508091505090565b6004811061051f576040517f08c379a000000000000000000000000000000000000000000000000000000000815260040161051690610afb565b60405180910390fd5b6000600160003373ffffffffffffffffffffffffffffffffffffffff1673ffffffffffffffffffffffffffffffffffffffff168152602001908152602001600020905080600401826004811061057857610577610b1b565b5b602091828204019190069054906101000a900460ff166105cd576040517f08c379a00000000000000000000000000000000000000000000000000000000081526004016105c490610e0d565b60405180910390fd5b60008160040183600481106105e5576105e4610b1b565b5b602091828204019190066101000a81548160ff021916908315150217905550806005015481600001836004811061061f5761061e610b1b565b5b01819055507f114bea2e6f511e6553b5be7e9a1158ab19a552be89598d4bd5289e3e6477eabc3383836005015460405161065b93929190610cad565b60405180910390a15050565b6004600280549050106106af576040517f08c379a00000000000000000000000000000000000000000000000000000000081526004016106a690610e79565b60405180910390fd5b6000600160003373ffffffffffffffffffffffffffffffffffffffff1673ffffffffffffffffffffffffffffffffffffffff1681526020019081526020016000206005015414610734576040517f08c379a000000000000000000000000000000000000000000000000000000000815260040161072b90610ee5565b60405180910390fd5b6000600460346107449190610f05565b6002805490506107549190610f36565b90506000600160003373ffffffffffffffffffffffffffffffffffffffff1673ffffffffffffffffffffffffffffffffffffffff168152602001908152602001600020905081816005018190555060005b600481101561080e57828260000182600481106107c5576107c4610b1b565b5b018190555060018260040182600481106107e2576107e1610b1b565b5b602091828204019190066101000a81548160ff02191690831515021790555080806001019150506107a5565b506002339080600181540180825580915050600190039060005260206000200160009091909190916101000a81548173ffffffffffffffffffffffffffffffffffffffff021916908373ffffffffffffffffffffffffffffffffffffffff1602179055507f3330a6773675f31f62070870f40379f8c6d42e3761410011a4dfc42b18043d2f33836040516108a3929190610d98565b60405180910390a15050565b60016020528060005260406000206000915090508060050154905081565b60035481565b60006103e842336000546040516020016108ef93929190610fe1565b6040516020818303038152906040528051906020012060001c6109129190610c7c565b905090565b600080fd5b6000819050919050565b61092f8161091c565b811461093a57600080fd5b50565b60008135905061094c81610926565b92915050565b6000806040838503121561096957610968610917565b5b60006109778582860161093d565b92505060206109888582860161093d565b9150509250929050565b6000602082840312156109a8576109a7610917565b5b60006109b68482850161093d565b91505092915050565b600073ffffffffffffffffffffffffffffffffffffffff82169050919050565b60006109ea826109bf565b9050919050565b6109fa816109df565b82525050565b6000602082019050610a1560008301846109f1565b92915050565b610a248161091c565b82525050565b6000602082019050610a3f6000830184610a1b565b92915050565b610a4e816109df565b8114610a5957600080fd5b50565b600081359050610a6b81610a45565b92915050565b600060208284031215610a8757610a86610917565b5b6000610a9584828501610a5c565b91505092915050565b600082825260208201905092915050565b7f496e76616c696420706965636520696e64657800000000000000000000000000600082015250565b6000610ae5601383610a9e565b9150610af082610aaf565b602082019050919050565b60006020820190508181036000830152610b1481610ad8565b9050919050565b7f4e487b7100000000000000000000000000000000000000000000000000000000600052603260045260246000fd5b7f506965636520697320696e20686f6d6500000000000000000000000000000000600082015250565b6000610b80601083610a9e565b9150610b8b82610b4a565b602082019050919050565b60006020820190508181036000830152610baf81610b73565b9050919050565b7f4e487b7100000000000000000000000000000000000000000000000000000000600052601160045260246000fd5b6000610bf08261091c565b9150610bfb8361091c565b9250828201905080821115610c1357610c12610bb6565b5b92915050565b6000610c248261091c565b9150610c2f8361091c565b9250828203905081811115610c4757610c46610bb6565b5b92915050565b7f4e487b7100000000000000000000000000000000000000000000000000000000600052601260045260246000fd5b6000610c878261091c565b9150610c928361091c565b925082610ca257610ca1610c4d565b5b828206905092915050565b6000606082019050610cc260008301866109f1565b610ccf6020830185610a1b565b610cdc6040830184610a1b565b949350505050565b7f4e6f7420796f7572207475726e00000000000000000000000000000000000000600082015250565b6000610d1a600d83610a9e565b9150610d2582610ce4565b602082019050919050565b60006020820190508181036000830152610d4981610d0d565b9050919050565b6000610d5b8261091c565b91507fffffffffffffffffffffffffffffffffffffffffffffffffffffffffffffffff8203610d8d57610d8c610bb6565b5b600182019050919050565b6000604082019050610dad60008301856109f1565b610dba6020830184610a1b565b9392505050565b7f5069656365206973206e6f7420696e20686f6d65000000000000000000000000600082015250565b6000610df7601483610a9e565b9150610e0282610dc1565b602082019050919050565b60006020820190508181036000830152610e2681610dea565b9050919050565b7f47616d652069732066756c6c0000000000000000000000000000000000000000600082015250565b6000610e63600c83610a9e565b9150610e6e82610e2d565b602082019050919050565b60006020820190508181036000830152610e9281610e56565b9050919050565b7f416c7265616479206a6f696e6564000000000000000000000000000000000000600082015250565b6000610ecf600e83610a9e565b9150610eda82610e99565b602082019050919050565b60006020820190508181036000830152610efe81610ec2565b9050919050565b6000610f108261091c565b9150610f1b8361091c565b925082610f2b57610f2a610c4d565b5b828204905092915050565b6000610f418261091c565b9150610f4c8361091c565b9250828202610f5a8161091c565b91508282048414831517610f7157610f70610bb6565b5b5092915050565b6000819050919050565b610f93610f8e8261091c565b610f78565b82525050565b60008160601b9050919050565b6000610fb182610f99565b9050919050565b6000610fc382610fa6565b9050919050565b610fdb610fd6826109df565b610fb8565b82525050565b6000610fed8286610f82565b602082019150610ffd8285610fca565b60148201915061100d8284610f82565b60208201915081905094935050505056fea264697066735822122021b336d274b8191e6744787166dbc88a0243d1805d8a0331288cf5dc2da1842064736f6c63430008180033",
  "linkReferences": {},
  "deployedLinkReferences": {}
}